{
  "_format": "hh-sol-artifact-1",
  "contractName": "Resolver",
  "sourceName": "src/Resolver.sol",
  "abi": [
    {
      "anonymous": false,
      "inputs": [
        {
          "indexed": false,
          "internalType": "bytes32",
          "name": "id",
          "type": "bytes32"
        },
        {
          "indexed": false,
          "internalType": "uint256",
          "name": "amount",
          "type": "uint256"
        },
        {
          "indexed": false,
          "internalType": "bytes32",
          "name": "preimage",
          "type": "bytes32"
        }
      ],
      "name": "SwapFilled",
      "type": "event"
    },
    {
      "anonymous": false,
      "inputs": [
        {
          "indexed": false,
          "internalType": "bytes32",
          "name": "id",
          "type": "bytes32"
        },
        {
          "indexed": false,
          "internalType": "address",
          "name": "escrow",
          "type": "address"
        },
        {
          "indexed": false,
          "internalType": "uint16",
          "name": "toChain",
          "type": "uint16"
        },
        {
          "indexed": false,
          "internalType": "uint256",
          "name": "amount",
          "type": "uint256"
        },
        {
          "indexed": false,
          "internalType": "bytes32",
          "name": "hash",
          "type": "bytes32"
        }
      ],
      "name": "SwapOpened",
      "type": "event"
    },
    {
      "inputs": [
        {
          "internalType": "bytes32",
          "name": "id",
          "type": "bytes32"
        },
        {
          "internalType": "bytes32",
          "name": "preimage",
          "type": "bytes32"
        },
        {
          "internalType": "uint256",
          "name": "part",
          "type": "uint256"
        }
      ],
      "name": "fillSwap",
      "outputs": [],
      "stateMutability": "nonpayable",
      "type": "function"
    },
    {
      "inputs": [
        {
          "internalType": "address",
          "name": "escrow",
          "type": "address"
        },
        {
          "internalType": "uint16",
          "name": "toChain",
          "type": "uint16"
        },
        {
          "internalType": "uint256",
          "name": "amount",
          "type": "uint256"
        },
        {
          "internalType": "bytes32",
          "name": "hash",
          "type": "bytes32"
        },
        {
          "internalType": "uint256",
          "name": "timelock",
          "type": "uint256"
        }
      ],
      "name": "openSwap",
      "outputs": [
        {
          "internalType": "bytes32",
          "name": "id",
          "type": "bytes32"
        }
      ],
      "stateMutability": "nonpayable",
      "type": "function"
    },
    {
      "inputs": [
        {
          "internalType": "bytes32",
          "name": "id",
          "type": "bytes32"
        }
      ],
      "name": "remaining",
      "outputs": [
        {
          "internalType": "uint256",
          "name": "",
          "type": "uint256"
        }
      ],
      "stateMutability": "view",
      "type": "function"
    },
    {
      "inputs": [
        {
          "internalType": "bytes32",
          "name": "",
          "type": "bytes32"
        }
      ],
      "name": "swaps",
      "outputs": [
        {
          "internalType": "address",
          "name": "escrow",
          "type": "address"
        },
        {
          "internalType": "uint32",
          "name": "toChain",
          "type": "uint32"
        },
        {
          "internalType": "uint256",
          "name": "total",
          "type": "uint256"
        },
        {
          "internalType": "uint256",
          "name": "filled",
          "type": "uint256"
        },
        {
          "internalType": "bytes32",
          "name": "hash",
          "type": "bytes32"
        },
        {
          "internalType": "uint256",
          "name": "timelock",
          "type": "uint256"
        }
      ],
      "stateMutability": "view",
      "type": "function"
    }
  ],
  "bytecode": "0x608060405234801561001057600080fd5b5061063a806100206000396000f3fe608060405234801561001057600080fd5b506004361061004c5760003560e01c80637548f02114610051578063bc1ed74c14610077578063cb79a43f1461008a578063eb84e7f21461009f575b600080fd5b61006461005f3660046104d1565b61012c565b6040519081526020015b60405180910390f35b610064610085366004610535565b61027d565b61009d61009836600461054e565b6102a6565b005b6100f06100ad366004610535565b600060208190529081526040902080546001820154600283015460038401546004909401546001600160a01b03841694600160a01b90940463ffffffff16939086565b604080516001600160a01b03909716875263ffffffff9095166020870152938501929092526060840152608083015260a082015260c00161006e565b6040516bffffffffffffffffffffffff19606087901b166020820152603481018390526054810184905242607482015260009060940160408051601f19818403018152828252805160209182012060c0840183526001600160a01b03808b16855261ffff8a168584019081528585018a8152600060608801818152608089018c815260a08a018c8152878452978390529188902098518954945163ffffffff16600160a01b026001600160c01b0319909516951694909417929092178755516001870155905160028601555160038501559051600490930192909255519091507f2d0f7fecc7443d5d6137bf47bb88f5888da0f1dd7a8734dc2a99c07aada278ac9061026c90839089908990899089909485526001600160a01b0393909316602085015261ffff9190911660408401526060830152608082015260a00190565b60405180910390a195945050505050565b60008181526020819052604081206002810154600182015461029f9190610590565b9392505050565b600083815260208190526040902060018101546102f45760405162461bcd60e51b815260206004820152600760248201526606e6f20737761760cc1b60448201526064015b60405180910390fd5b806001015482826002015461030991906105a9565b11156103425760405162461bcd60e51b81526020600482015260086024820152671bdd995c999a5b1b60c21b60448201526064016102eb565b806003015460028460405160200161035c91815260200190565b60408051601f1981840301815290829052610376916105bc565b602060405180830381855afa158015610393573d6000803e3d6000fd5b5050506040513d601f19601f820116820180604052508101906103b691906105eb565b146103f25760405162461bcd60e51b815260206004820152600c60248201526b62616420707265696d61676560a01b60448201526064016102eb565b8181600201600082825461040691906105a9565b9091555050805462aa36a619600160a01b90910463ffffffff160161048a5780546040516384cc9dfb60e01b815260048101869052602481018590526001600160a01b03909116906384cc9dfb90604401600060405180830381600087803b15801561047157600080fd5b505af1158015610485573d6000803e3d6000fd5b505050505b60408051858152602081018490529081018490527fcb9d1a4833a1a212009caeb5d0aa2b4c620f0de5eb53d9b4b7b6e9bfffe0e3839060600160405180910390a150505050565b600080600080600060a086880312156104e957600080fd5b85356001600160a01b038116811461050057600080fd5b9450602086013561ffff8116811461051757600080fd5b94979496505050506040830135926060810135926080909101359150565b60006020828403121561054757600080fd5b5035919050565b60008060006060848603121561056357600080fd5b505081359360208301359350604090920135919050565b634e487b7160e01b600052601160045260246000fd5b818103818111156105a3576105a361057a565b92915050565b808201808211156105a3576105a361057a565b6000825160005b818110156105dd57602081860181015185830152016105c3565b506000920191825250919050565b6000602082840312156105fd57600080fd5b505191905056fea2646970667358221220d2bbbf9a72cefbe597ac6c694ee16b825dba17c57e7acd016b8a20a30fa1940464736f6c63430008140033",
  "linkReferences": {},
  "deployedLinkReferences": {}
}