{
  "_format": "hh-sol-artifact-1",
  "contractName": "Resolver",
  "sourceName": "src/Resolver.sol",
  "abi": [
    {
      "anonymous": false,
      "inputs": [
        {
          "indexed": false,
          "internalType": "bytes32",
          "name": "id",
          "type": "bytes32"
        },
        {
          "indexed": false,
          "internalType": "uint256",
          "name": "amount",
          "type": "uint256"
        },
        {
          "indexed": false,
          "internalType": "bytes32",
          "name": "preimage",
          "type": "bytes32"
        }
      ],
      "name": "SwapFilled",
      "type": "event"
    },
    {
      "anonymous": false,
      "inputs": [
        {
          "indexed": false,
          "internalType": "bytes32",
          "name": "id",
          "type": "bytes32"
        },
        {
          "indexed": false,
          "internalType": "address",
          "name": "escrow",
          "type": "address"
        },
        {
          "indexed": false,
          "internalType": "uint16",
          "name": "toChain",
          "type": "uint16"
        },
        {
          "indexed": false,
          "internalType": "uint256",
          "name": "amount",
          "type": "uint256"
        },
        {
          "indexed": false,
          "internalType": "bytes32",
          "name": "hash",
          "type": "bytes32"
        }
      ],
      "name": "SwapOpened",
      "type": "event"
    },
    {
      "inputs": [
        {
          "internalType": "bytes32",
          "name": "id",
          "type": "bytes32"
        },
        {
          "internalType": "bytes32",
          "name": "preimage",
          "type": "bytes32"
        },
        {
          "internalType": "uint256",
          "name": "part",
          "type": "uint256"
        }
      ],
      "name": "fillSwap",
      "outputs": [],
      "stateMutability": "nonpayable",
      "type": "function"
    },
    {
      "inputs": [
        {
          "internalType": "address",
          "name": "escrow",
          "type": "address"
        },
        {
          "internalType": "uint16",
          "name": "toChain",
          "type": "uint16"
        },
        {
          "internalType": "uint256",
          "name": "amount",
          "type": "uint256"
        },
        {
          "internalType": "bytes32",
          "name": "hash",
          "type": "bytes32"
        },
        {
          "internalType": "uint256",
          "name": "timelock",
          "type": "uint256"
        }
      ],
      "name": "openSwap",
      "outputs": [
        {
          "internalType": "bytes32",
          "name": "id",
          "type": "bytes32"
        }
      ],
      "stateMutability": "nonpayable",
      "type": "function"
    },
    {
      "inputs": [
        {
          "internalType": "bytes32",
          "name": "id",
          "type": "bytes32"
        }
      ],
      "name": "remaining",
      "outputs": [
        {
          "internalType": "uint256",
          "name": "",
          "type": "uint256"
        }
      ],
      "stateMutability": "view",
      "type": "function"
    },
    {
      "inputs": [
        {
          "internalType": "bytes32",
          "name": "",
          "type": "bytes32"
        }
      ],
      "name": "swaps",
      "outputs": [
        {
          "internalType": "address",
          "name": "escrow",
          "type": "address"
        },
        {
          "internalType": "uint32",
          "name": "toChain",
          "type": "uint32"
        },
        {
          "internalType": "uint256",
          "name": "total",
          "type": "uint256"
        },
        {
          "internalType": "uint256",
          "name": "filled",
          "type": "uint256"
        },
        {
          "internalType": "bytes32",
          "name": "hash",
          "type": "bytes32"
        },
        {
          "internalType": "uint256",
          "name": "timelock",
          "type": "uint256"
        }
      ],
      "stateMutability": "view",
      "type": "function"
    }
  ],
  "bytecode": "0x608060405234801561001057600080fd5b50610d39806100206000396000f3fe608060405234801561001057600080fd5b506004361061004c5760003560e01c80637548f02114610051578063bc1ed74c14610081578063cb79a43f146100b1578063eb84e7f2146100cd575b600080fd5b61006b600480360381019061006691906106ba565b610102565b6040516100789190610744565b60405180910390f35b61009b6004803603810190610096919061075f565b610274565b6040516100a8919061079b565b60405180910390f35b6100cb60048036038101906100c691906107b6565b6102a7565b005b6100e760048036038101906100e2919061075f565b610545565b6040516100f996959493929190610837565b60405180910390f35b60008583854260405160200161011b9493929190610922565b6040516020818303038152906040528051906020012090506040518060c001604052808773ffffffffffffffffffffffffffffffffffffffff1681526020018661ffff1663ffffffff168152602001858152602001600081526020018481526020018381525060008083815260200190815260200160002060008201518160000160006101000a81548173ffffffffffffffffffffffffffffffffffffffff021916908373ffffffffffffffffffffffffffffffffffffffff16021790555060208201518160000160146101000a81548163ffffffff021916908363ffffffff16021790555060408201518160010155606082015181600201556080820151816003015560a082015181600401559050507f2d0f7fecc7443d5d6137bf47bb88f5888da0f1dd7a8734dc2a99c07aada278ac818787878760405161026395949392919061097f565b60405180910390a195945050505050565b60008060008084815260200190815260200160002090508060020154816001015461029f9190610a01565b915050919050565b600080600085815260200190815260200160002090506000816001015411610304576040517f08c379a00000000000000000000000000000000000000000000000000000000081526004016102fb90610a92565b60405180910390fd5b80600101548282600201546103199190610ab2565b111561035a576040517f08c379a000000000000000000000000000000000000000000000000000000000815260040161035190610b32565b60405180910390fd5b80600301546002846040516020016103729190610b52565b60405160208183030381529060405260405161038e9190610bde565b602060405180830381855afa1580156103ab573d6000803e3d6000fd5b5050506040513d601f19601f820116820180604052508101906103ce9190610c0a565b1461040e576040517f08c379a000000000000000000000000000000000000000000000000000000000815260040161040590610c83565b60405180910390fd5b818160020160008282546104229190610ab2565b9250508190555062aa36a763ffffffff168160000160149054906101000a900463ffffffff1663ffffffff16036104e9578060000160009054906101000a900473ffffffffffffffffffffffffffffffffffffffff1673ffffffffffffffffffffffffffffffffffffffff166384cc9dfb85856040518363ffffffff1660e01b81526004016104b2929190610ca3565b600060405180830381600087803b1580156104cc57600080fd5b505af11580156104e0573d6000803e3d6000fd5b50505050610504565b61271163ffffffff168160000160149054906101000a905050505b7fcb9d1a4833a1a212009caeb5d0aa2b4c620f0de5eb53d9b4b7b6e9bfffe0e38384838560405161053793929190610ccc565b60405180910390a150505050565b60006020528060005260406000206000915090508060000160009054906101000a900473ffffffffffffffffffffffffffffffffffffffff16908060000160149054906101000a900463ffffffff16908060010154908060020154908060030154908060040154905086565b600080fd5b600073ffffffffffffffffffffffffffffffffffffffff82169050919050565b60006105e1826105b6565b9050919050565b6105f1816105d6565b81146105fc57600080fd5b50565b60008135905061060e816105e8565b92915050565b600061ffff82169050919050565b61062b81610614565b811461063657600080fd5b50565b60008135905061064881610622565b92915050565b6000819050919050565b6106618161064e565b811461066c57600080fd5b50565b60008135905061067e81610658565b92915050565b6000819050919050565b61069781610684565b81146106a257600080fd5b50565b6000813590506106b48161068e565b92915050565b600080600080600060a086880312156106d6576106d56105b1565b5b60006106e4888289016105ff565b95505060206106f588828901610639565b94505060406107068882890161066f565b9350506060610717888289016106a5565b92505060806107288882890161066f565b9150509295509295909350565b61073e81610684565b82525050565b60006020820190506107596000830184610735565b92915050565b600060208284031215610775576107746105b1565b5b6000610783848285016106a5565b91505092915050565b6107958161064e565b82525050565b60006020820190506107b0600083018461078c565b92915050565b6000806000606084860312156107cf576107ce6105b1565b5b60006107dd868287016106a5565b93505060206107ee868287016106a5565b92505060406107ff8682870161066f565b9150509250925092565b610812816105d6565b82525050565b600063ffffffff82169050919050565b61083181610818565b82525050565b600060c08201905061084c6000830189610809565b6108596020830188610828565b610866604083018761078c565b610873606083018661078c565b6108806080830185610735565b61088d60a083018461078c565b979650505050505050565b60008160601b9050919050565b60006108b082610898565b9050919050565b60006108c2826108a5565b9050919050565b6108da6108d5826105d6565b6108b7565b82525050565b6000819050919050565b6108fb6108f682610684565b6108e0565b82525050565b6000819050919050565b61091c6109178261064e565b610901565b82525050565b600061092e82876108c9565b60148201915061093e82866108ea565b60208201915061094e828561090b565b60208201915061095e828461090b565b60208201915081905095945050505050565b61097981610614565b82525050565b600060a0820190506109946000830188610735565b6109a16020830187610809565b6109ae6040830186610970565b6109bb606083018561078c565b6109c86080830184610735565b9695505050505050565b7f4e487b7100000000000000000000000000000000000000000000000000000000600052601160045260246000fd5b6000610a0c8261064e565b9150610a178361064e565b9250828203905081811115610a2f57610a2e6109d2565b5b92915050565b600082825260208201905092915050565b7f6e6f207377617000000000000000000000000000000000000000000000000000600082015250565b6000610a7c600783610a35565b9150610a8782610a46565b602082019050919050565b60006020820190508181036000830152610aab81610a6f565b9050919050565b6000610abd8261064e565b9150610ac88361064e565b9250828201905080821115610ae057610adf6109d2565b5b92915050565b7f6f76657266696c6c000000000000000000000000000000000000000000000000600082015250565b6000610b1c600883610a35565b9150610b2782610ae6565b602082019050919050565b60006020820190508181036000830152610b4b81610b0f565b9050919050565b6000610b5e82846108ea565b60208201915081905092915050565b600081519050919050565b600081905092915050565b60005b83811015610ba1578082015181840152602081019050610b86565b60008484015250505050565b6000610bb882610b6d565b610bc28185610b78565b9350610bd2818560208601610b83565b80840191505092915050565b6000610bea8284610bad565b915081905092915050565b600081519050610c048161068e565b92915050565b600060208284031215610c2057610c1f6105b1565b5b6000610c2e84828501610bf5565b91505092915050565b7f62616420707265696d6167650000000000000000000000000000000000000000600082015250565b6000610c6d600c83610a35565b9150610c7882610c37565b602082019050919050565b60006020820190508181036000830152610c9c81610c60565b9050919050565b6000604082019050610cb86000830185610735565b610cc56020830184610735565b9392505050565b6000606082019050610ce16000830186610735565b610cee602083018561078c565b610cfb6040830184610735565b94935050505056fea264697066735822122025bf7d429677c0c361a718660701c55ffd8364da18148e9d8f652cce252658b464736f6c63430008140033",
  "linkReferences": {},
  "deployedLinkReferences": {}
}