{
  "_format": "hh-sol-artifact-1",
  "contractName": "TestEscrowFactory",
  "sourceName": "src/TestEscrowFactory.sol",
  "abi": [
    {
      "anonymous": false,
      "inputs": [
        {
          "indexed": true,
          "internalType": "bytes32",
          "name": "swapId",
          "type": "bytes32"
        },
        {
          "indexed": false,
          "internalType": "uint256",
          "name": "contractIndex",
          "type": "uint256"
        },
        {
          "indexed": true,
          "internalType": "address",
          "name": "resolver",
          "type": "address"
        },
        {
          "indexed": false,
          "internalType": "uint256",
          "name": "amount",
          "type": "uint256"
        }
      ],
      "name": "ContractClaimed",
      "type": "event"
    },
    {
      "anonymous": false,
      "inputs": [
        {
          "indexed": true,
          "internalType": "bytes32",
          "name": "swapId",
          "type": "bytes32"
        },
        {
          "indexed": false,
          "internalType": "uint256",
          "name": "contractIndex",
          "type": "uint256"
        },
        {
          "indexed": false,
          "internalType": "address",
          "name": "contractAddress",
          "type": "address"
        },
        {
          "indexed": false,
          "internalType": "uint256",
          "name": "amount",
          "type": "uint256"
        }
      ],
      "name": "ContractCreated",
      "type": "event"
    },
    {
      "anonymous": false,
      "inputs": [
        {
          "indexed": true,
          "internalType": "bytes32",
          "name": "swapId",
          "type": "bytes32"
        },
        {
          "indexed": false,
          "internalType": "uint256",
          "name": "totalClaimed",
          "type": "uint256"
        }
      ],
      "name": "SwapCompleted",
      "type": "event"
    },
    {
      "anonymous": false,
      "inputs": [
        {
          "indexed": true,
          "internalType": "bytes32",
          "name": "swapId",
          "type": "bytes32"
        },
        {
          "indexed": true,
          "internalType": "address",
          "name": "initiator",
          "type": "address"
        },
        {
          "indexed": false,
          "internalType": "uint256",
          "name": "totalAmount",
          "type": "uint256"
        },
        {
          "indexed": false,
          "internalType": "uint256",
          "name": "amountPerContract",
          "type": "uint256"
        }
      ],
      "name": "SwapCreated",
      "type": "event"
    },
    {
      "inputs": [
        {
          "internalType": "uint256",
          "name": "fillPercentage",
          "type": "uint256"
        }
      ],
      "name": "calculateClaimableContracts",
      "outputs": [
        {
          "internalType": "uint256",
          "name": "",
          "type": "uint256"
        }
      ],
      "stateMutability": "pure",
      "type": "function"
    },
    {
      "inputs": [
        {
          "internalType": "bytes32",
          "name": "swapId",
          "type": "bytes32"
        },
        {
          "internalType": "uint256",
          "name": "contractIndex",
          "type": "uint256"
        },
        {
          "internalType": "bytes32",
          "name": "preimage",
          "type": "bytes32"
        }
      ],
      "name": "claimContract",
      "outputs": [],
      "stateMutability": "nonpayable",
      "type": "function"
    },
    {
      "inputs": [
        {
          "internalType": "bytes32",
          "name": "",
          "type": "bytes32"
        },
        {
          "internalType": "uint256",
          "name": "",
          "type": "uint256"
        }
      ],
      "name": "contractResolvers",
      "outputs": [
        {
          "internalType": "address",
          "name": "",
          "type": "address"
        }
      ],
      "stateMutability": "view",
      "type": "function"
    },
    {
      "inputs": [
        {
          "internalType": "address",
          "name": "recipient",
          "type": "address"
        },
        {
          "internalType": "address",
          "name": "token",
          "type": "address"
        },
        {
          "internalType": "uint256",
          "name": "totalAmount",
          "type": "uint256"
        },
        {
          "internalType": "bytes32",
          "name": "hash",
          "type": "bytes32"
        },
        {
          "internalType": "uint256",
          "name": "timelock",
          "type": "uint256"
        }
      ],
      "name": "createSwap",
      "outputs": [
        {
          "internalType": "bytes32",
          "name": "swapId",
          "type": "bytes32"
        }
      ],
      "stateMutability": "payable",
      "type": "function"
    },
    {
      "inputs": [
        {
          "internalType": "bytes32",
          "name": "swapId",
          "type": "bytes32"
        },
        {
          "internalType": "uint256",
          "name": "contractIndex",
          "type": "uint256"
        }
      ],
      "name": "getContractResolver",
      "outputs": [
        {
          "internalType": "address",
          "name": "",
          "type": "address"
        }
      ],
      "stateMutability": "view",
      "type": "function"
    },
    {
      "inputs": [
        {
          "internalType": "bytes32",
          "name": "swapId",
          "type": "bytes32"
        }
      ],
      "name": "getRemainingContracts",
      "outputs": [
        {
          "internalType": "uint256[]",
          "name": "",
          "type": "uint256[]"
        }
      ],
      "stateMutability": "view",
      "type": "function"
    },
    {
      "inputs": [
        {
          "internalType": "bytes32",
          "name": "swapId",
          "type": "bytes32"
        }
      ],
      "name": "getSwapContracts",
      "outputs": [
        {
          "internalType": "address[10]",
          "name": "",
          "type": "address[10]"
        }
      ],
      "stateMutability": "view",
      "type": "function"
    },
    {
      "inputs": [
        {
          "internalType": "bytes32",
          "name": "swapId",
          "type": "bytes32"
        }
      ],
      "name": "getSwapInfo",
      "outputs": [
        {
          "internalType": "address",
          "name": "initiator",
          "type": "address"
        },
        {
          "internalType": "address",
          "name": "recipient",
          "type": "address"
        },
        {
          "internalType": "address",
          "name": "token",
          "type": "address"
        },
        {
          "internalType": "uint256",
          "name": "totalAmount",
          "type": "uint256"
        },
        {
          "internalType": "uint256",
          "name": "amountPerContract",
          "type": "uint256"
        },
        {
          "internalType": "bytes32",
          "name": "hash",
          "type": "bytes32"
        },
        {
          "internalType": "uint256",
          "name": "timelock",
          "type": "uint256"
        },
        {
          "internalType": "bool",
          "name": "isActive",
          "type": "bool"
        },
        {
          "internalType": "uint256",
          "name": "filledContracts",
          "type": "uint256"
        }
      ],
      "stateMutability": "view",
      "type": "function"
    },
    {
      "inputs": [
        {
          "internalType": "bytes32",
          "name": "",
          "type": "bytes32"
        },
        {
          "internalType": "uint256",
          "name": "",
          "type": "uint256"
        }
      ],
      "name": "swapContracts",
      "outputs": [
        {
          "internalType": "address",
          "name": "",
          "type": "address"
        }
      ],
      "stateMutability": "view",
      "type": "function"
    },
    {
      "inputs": [
        {
          "internalType": "bytes32",
          "name": "",
          "type": "bytes32"
        }
      ],
      "name": "swaps",
      "outputs": [
        {
          "internalType": "address",
          "name": "initiator",
          "type": "address"
        },
        {
          "internalType": "address",
          "name": "recipient",
          "type": "address"
        },
        {
          "internalType": "address",
          "name": "token",
          "type": "address"
        },
        {
          "internalType": "uint256",
          "name": "totalAmount",
          "type": "uint256"
        },
        {
          "internalType": "uint256",
          "name": "amountPerContract",
          "type": "uint256"
        },
        {
          "internalType": "bytes32",
          "name": "hash",
          "type": "bytes32"
        },
        {
          "internalType": "uint256",
          "name": "timelock",
          "type": "uint256"
        },
        {
          "internalType": "bool",
          "name": "isActive",
          "type": "bool"
        },
        {
          "internalType": "uint256",
          "name": "filledContracts",
          "type": "uint256"
        }
      ],
      "stateMutability": "view",
      "type": "function"
    }
  ],
  "bytecode": "0x608060405234801561001057600080fd5b50611f47806100206000396000f3fe6080604052600436106100915760003560e01c8063903df65f11610059578063903df65f14610234578063c6a6c54814610261578063d3b1db2014610282578063eb84e7f2146102a2578063f3230d6a1461031957600080fd5b80630e31068d146100965780632ccb2775146100f45780632d0fc6b414610121578063313c9b1b146101f25780633bf9038d14610214575b600080fd5b3480156100a257600080fd5b506100d76100b1366004610f3d565b60026020908152600092835260408084209091529082529020546001600160a01b031681565b6040516001600160a01b0390911681526020015b60405180910390f35b34801561010057600080fd5b5061011461010f366004610f5f565b610339565b6040516100eb9190610f78565b34801561012d57600080fd5b5061019b61013c366004610f5f565b6000908152602081905260409020805460018201546002830154600384015460048501546005860154600687015460078801546008909801546001600160a01b0397881699968816989790951696939592949193909260ff9091169190565b604080516001600160a01b039a8b168152988a1660208a015296909816958701959095526060860193909352608085019190915260a084015260c0830152151560e0820152610100810191909152610120016100eb565b3480156101fe57600080fd5b5061021261020d366004610fbc565b610421565b005b34801561022057600080fd5b506100d761022f366004610f3d565b6107b1565b34801561024057600080fd5b5061025461024f366004610f5f565b6107db565b6040516100eb9190610fe8565b61027461026f36600461103f565b61082e565b6040519081526020016100eb565b34801561028e57600080fd5b506100d761029d366004610f3d565b610b86565b3480156102ae57600080fd5b5061019b6102bd366004610f5f565b6000602081905290815260409020805460018201546002830154600384015460048501546005860154600687015460078801546008909801546001600160a01b03978816989688169790951695939492939192909160ff169089565b34801561032557600080fd5b50610274610334366004610f5f565b610bb4565b600081815260208190526040812060088101546060929061035b90600a6110a2565b905060008167ffffffffffffffff811115610378576103786110b5565b6040519080825280602002602001820160405280156103a1578160200160208202803683370190505b5090506000805b600a8110156104165760008781526002602090815260408083208484529091529020546001600160a01b031661040457808383815181106103eb576103eb6110cb565b602090810291909101015281610400816110e1565b9250505b8061040e816110e1565b9150506103a8565b509095945050505050565b600a821061046f5760405162461bcd60e51b8152602060048201526016602482015275092dcecc2d8d2c840c6dedce8e4c2c6e840d2dcc8caf60531b60448201526064015b60405180910390fd5b60008381526020819052604090206007015460ff166104c25760405162461bcd60e51b815260206004820152600f60248201526e53776170206e6f742061637469766560881b6044820152606401610466565b60008381526002602090815260408083208584529091529020546001600160a01b0316156105325760405162461bcd60e51b815260206004820152601860248201527f436f6e747261637420616c726561647920636c61696d656400000000000000006044820152606401610466565b6000838152602081815260408083206001909252822090919084600a811061055c5761055c6110cb565b01546001600160a01b03169050806105ab5760405162461bcd60e51b815260206004820152601260248201527110dbdb9d1c9858dd081b9bdd08199bdd5b9960721b6044820152606401610466565b6000858152600260209081526040808320878452909152812080546001600160a01b03191633179055600883018054916105e4836110e1565b90915550506040516384cc9dfb60e01b8152600481018690526024810184905281906001600160a01b038216906384cc9dfb90604401600060405180830381600087803b15801561063457600080fd5b505af1158015610648573d6000803e3d6000fd5b5050505060028301546001600160a01b0316610694576004830154604051339180156108fc02916000818181858888f1935050505015801561068e573d6000803e3d6000fd5b50610713565b600283015460048085015460405163a9059cbb60e01b8152339281019290925260248201526001600160a01b039091169063a9059cbb906044016020604051808303816000875af11580156106ed573d6000803e3d6000fd5b505050506040513d601f19601f8201168201806040525081019061071191906110fa565b505b6004830154604080518781526020810192909252339188917fa9e5e330ae6e35fb2e9230aec313308255810cc66d8bc0e420a18c2de4f986e4910160405180910390a38260080154600a036107a95760078301805460ff19169055600383015460405190815286907fd29a7b466837c247c5d6e6c26cc24c13d18bbfa09c8a6de9a249c2d988e33f869060200160405180910390a25b505050505050565b60008281526002602090815260408083208484529091529020546001600160a01b03165b92915050565b6107e3610f11565b60008281526001602052604090819020815161014081019283905291600a9082845b81546001600160a01b031681526001909101906020018083116108055750505050509050919050565b600080841161087f5760405162461bcd60e51b815260206004820152601d60248201527f416d6f756e74206d7573742062652067726561746572207468616e20300000006044820152606401610466565b61088a600a85611139565b156108d75760405162461bcd60e51b815260206004820152601e60248201527f416d6f756e74206d75737420626520646976697369626c6520627920313000006044820152606401610466565b4282116109265760405162461bcd60e51b815260206004820152601e60248201527f54696d656c6f636b206d75737420626520696e207468652066757475726500006044820152606401610466565b6000610933600a8661114d565b6040516bffffffffffffffffffffffff1933606090811b821660208401528a811b8216603484015289901b166048820152605c8101879052607c8101869052609c81018590524260bc82015290915060dc0160408051601f1981840301815291815281516020928301206000818152928390529120549092506001600160a01b0316156109f85760405162461bcd60e51b81526020600482015260136024820152725377617020616c72656164792065786973747360681b6044820152606401610466565b60408051610120810182523381526001600160a01b0389811660208084019182528a8316848601908152606085018b81526080860188815260a087018c815260c088018c8152600160e08a0181815260006101008c018181528f8252988190529b8c209a518b546001600160a01b0319908116918c16919091178c559851918b0180548a16928b1692909217909155945160028a0180549098169816979097179095559051600387015551600486015591516005850155915160068401555160078301805460ff1916911515919091179055516008909101555b600a811015610b3e576000610ae8848385610c83565b6000858152600160205260409020909150819083600a8110610b0c57610b0c6110cb565b0180546001600160a01b0319166001600160a01b03929092169190911790555080610b36816110e1565b915050610ad2565b506040805186815260208101839052339184917f65b0c4090dd7502e249bb7170070a58ae3bd4d30790e87091ce732a3b9e0ef06910160405180910390a35095945050505050565b600160205281600052604060002081600a8110610ba257600080fd5b01546001600160a01b03169150829050565b60006064821115610c115760405162461bcd60e51b815260206004820152602160248201527f46696c6c2070657263656e746167652063616e6e6f74206578636565642031306044820152600360fc1b6064820152608401610466565b610c1c600a83611139565b15610c785760405162461bcd60e51b815260206004820152602660248201527f46696c6c2070657263656e74616765206d757374206265206d756c7469706c656044820152650206f662031360d41b6064820152608401610466565b6107d5600a8361114d565b60008381526020819052604080822090518290610c9f90610f30565b604051809103906000f080158015610cbb573d6000803e3d6000fd5b5060028301549093508391506001600160a01b0316610da55783341015610d1c5760405162461bcd60e51b8152602060048201526015602482015274125b9cdd59999a58da595b9d08115512081cd95b9d605a1b6044820152606401610466565b6005820154600683015460405163c814c90b60e01b8152306004820152602481019290925260448201526001600160a01b0382169063c814c90b90869060640160206040518083038185885af1158015610d7a573d6000803e3d6000fd5b50505050506040513d601f19601f82011682018060405250810190610d9f9190611161565b50610ebd565b60028201546040516323b872dd60e01b81523360048201526001600160a01b03838116602483015260448201879052909116906323b872dd906064016020604051808303816000875af1158015610e00573d6000803e3d6000fd5b505050506040513d601f19601f82011682018060405250810190610e2491906110fa565b5060028201546005830154600684015460405163cd61efed60e01b81523060048201526001600160a01b03938416602482015260448101889052606481019290925260848201529082169063cd61efed9060a4016020604051808303816000875af1158015610e97573d6000803e3d6000fd5b505050506040513d601f19601f82011682018060405250810190610ebb9190611161565b505b604080518681526001600160a01b038516602082015290810185905286907f5fad2f7ed6dac89eef4c4114e895c36b05bee1b0e015b0570aef13c26f2d13559060600160405180910390a250509392505050565b604051806101400160405280600a906020820280368337509192915050565b610d978061117b83390190565b60008060408385031215610f5057600080fd5b50508035926020909101359150565b600060208284031215610f7157600080fd5b5035919050565b6020808252825182820181905260009190848201906040850190845b81811015610fb057835183529284019291840191600101610f94565b50909695505050505050565b600080600060608486031215610fd157600080fd5b505081359360208301359350604090920135919050565b6101408101818360005b600a81101561101a5781516001600160a01b0316835260209283019290910190600101610ff2565b50505092915050565b80356001600160a01b038116811461103a57600080fd5b919050565b600080600080600060a0868803121561105757600080fd5b61106086611023565b945061106e60208701611023565b94979496505050506040830135926060810135926080909101359150565b634e487b7160e01b600052601160045260246000fd5b818103818111156107d5576107d561108c565b634e487b7160e01b600052604160045260246000fd5b634e487b7160e01b600052603260045260246000fd5b6000600182016110f3576110f361108c565b5060010190565b60006020828403121561110c57600080fd5b8151801515811461111c57600080fd5b9392505050565b634e487b7160e01b600052601260045260246000fd5b60008261114857611148611123565b500690565b60008261115c5761115c611123565b500490565b60006020828403121561117357600080fd5b505191905056fe608060405234801561001057600080fd5b50610d77806100206000396000f3fe60806040526004361061004a5760003560e01c80637249fbb61461004f57806384cc9dfb14610071578063c814c90b14610091578063cd61efed146100b7578063eb84e7f2146100d7575b600080fd5b34801561005b57600080fd5b5061006f61006a366004610bb1565b610197565b005b34801561007d57600080fd5b5061006f61008c366004610bca565b610387565b6100a461009f366004610c08565b610637565b6040519081526020015b60405180910390f35b3480156100c357600080fd5b506100a46100d2366004610c3b565b6108fd565b3480156100e357600080fd5b506101496100f2366004610bb1565b60006020819052908152604090208054600182015460028301546003840154600485015460058601546006909601546001600160a01b03958616969486169590931693919290919060ff8082169161010090041688565b604080516001600160a01b03998a168152978916602089015295909716948601949094526060850192909252608084015260a0830152151560c082015290151560e0820152610100016100ae565b600081815260208190526040902080546001600160a01b031633146101f05760405162461bcd60e51b815260206004820152600a6024820152692737ba1039b2b73232b960b11b60448201526064015b60405180910390fd5b600681015460ff1615801561020f57506006810154610100900460ff16155b6102445760405162461bcd60e51b81526004016101e790602080825260049082015263646f6e6560e01b604082015260600190565b80600501544210156102805760405162461bcd60e51b81526020600482015260056024820152646561726c7960d81b60448201526064016101e7565b60068101805461ff00191661010017905560028101546001600160a01b03166102d9576003810154604051339180156108fc02916000818181858888f193505050501580156102d3573d6000803e3d6000fd5b50610358565b6002810154600382015460405163a9059cbb60e01b815233600482015260248101919091526001600160a01b039091169063a9059cbb906044016020604051808303816000875af1158015610332573d6000803e3d6000fd5b505050506040513d601f19601f820116820180604052508101906103569190610c88565b505b60405182907ffe509803c09416b28ff3d8f690c8b0c61462a892c46d5430c8fb20abe472daf090600090a25050565b600082815260208190526040902060018101546001600160a01b031633146103e15760405162461bcd60e51b815260206004820152600d60248201526c139bdd081c9958da5c1a595b9d609a1b60448201526064016101e7565b600681015460ff1615801561040057506006810154610100900460ff16155b6104355760405162461bcd60e51b81526004016101e790602080825260049082015263646f6e6560e01b604082015260600190565b806004015460028360405160200161044f91815260200190565b60408051601f198184030181529082905261046991610cb1565b602060405180830381855afa158015610486573d6000803e3d6000fd5b5050506040513d601f19601f820116820180604052508101906104a99190610ce0565b146104e55760405162461bcd60e51b815260206004820152600c60248201526b62616420707265696d61676560a01b60448201526064016101e7565b806005015442106105225760405162461bcd60e51b8152602060048201526007602482015266195e1c1a5c995960ca1b60448201526064016101e7565b60068101805460ff1916600117905560028101546001600160a01b0316610579576003810154604051339180156108fc02916000818181858888f19350505050158015610573573d6000803e3d6000fd5b506105f8565b6002810154600382015460405163a9059cbb60e01b815233600482015260248101919091526001600160a01b039091169063a9059cbb906044016020604051808303816000875af11580156105d2573d6000803e3d6000fd5b505050506040513d601f19601f820116820180604052508101906105f69190610c88565b505b827f38d6042dbdae8e73a7f6afbabd3fbe0873f9f5ed3cd71294591c3908c2e65fee8360405161062a91815260200190565b60405180910390a2505050565b60008034116106735760405162461bcd60e51b81526020600482015260086024820152676e6f2076616c756560c01b60448201526064016101e7565b4282116106ad5760405162461bcd60e51b81526020600482015260086024820152676261642074696d6560c01b60448201526064016101e7565b338460003486866040516020016106c996959493929190610cf9565b60408051601f1981840301815291815281516020928301206000818152928390529120549091506001600160a01b03161561072c5760405162461bcd60e51b815260206004820152600360248201526206475760ec1b60448201526064016101e7565b604051806101000160405280336001600160a01b03168152602001856001600160a01b0316815260200160006001600160a01b031681526020013481526020018481526020018381526020016000151581526020016000151581525060008083815260200190815260200160002060008201518160000160006101000a8154816001600160a01b0302191690836001600160a01b0316021790555060208201518160010160006101000a8154816001600160a01b0302191690836001600160a01b0316021790555060408201518160020160006101000a8154816001600160a01b0302191690836001600160a01b03160217905550606082015181600301556080820151816004015560a0820151816005015560c08201518160060160006101000a81548160ff02191690831515021790555060e08201518160060160016101000a81548160ff021916908315150217905550905050836001600160a01b0316336001600160a01b0316827f14442dbf5e9aa943f3b7681bdf4e57c3256930c69ccc137263150f7e01bd51cf60003488886040516108ee94939291906001600160a01b0394909416845260208401929092526040830152606082015260800190565b60405180910390a49392505050565b600080841161093a5760405162461bcd60e51b81526020600482015260096024820152681b9bc8185b5bdd5b9d60ba1b60448201526064016101e7565b6040516323b872dd60e01b8152336004820152306024820152604481018590526001600160a01b038616906323b872dd906064016020604051808303816000875af115801561098d573d6000803e3d6000fd5b505050506040513d601f19601f820116820180604052508101906109b19190610c88565b504282116109ec5760405162461bcd60e51b81526020600482015260086024820152676261642074696d6560c01b60448201526064016101e7565b338686868686604051602001610a0796959493929190610cf9565b60408051601f1981840301815291815281516020928301206000818152928390529120549091506001600160a01b031615610a6a5760405162461bcd60e51b815260206004820152600360248201526206475760ec1b60448201526064016101e7565b604080516101008082018352338083526001600160a01b038a811660208086018281528c8416878901908152606088018d8152608089018d815260a08a018d8152600060c08c0181815260e08d018281528f835297829052908d90209b518c54908a166001600160a01b0319918216178d55955160018d018054918b16918816919091179055935160028c01805491909916951694909417909655516003890155935160048801555160058701559151600690950180549251151590940261ff00199515159590951661ffff199092169190911793909317909155915190919083907f14442dbf5e9aa943f3b7681bdf4e57c3256930c69ccc137263150f7e01bd51cf90610ba0908a908a908a908a906001600160a01b0394909416845260208401929092526040830152606082015260800190565b60405180910390a495945050505050565b600060208284031215610bc357600080fd5b5035919050565b60008060408385031215610bdd57600080fd5b50508035926020909101359150565b80356001600160a01b0381168114610c0357600080fd5b919050565b600080600060608486031215610c1d57600080fd5b610c2684610bec565b95602085013595506040909401359392505050565b600080600080600060a08688031215610c5357600080fd5b610c5c86610bec565b9450610c6a60208701610bec565b94979496505050506040830135926060810135926080909101359150565b600060208284031215610c9a57600080fd5b81518015158114610caa57600080fd5b9392505050565b6000825160005b81811015610cd25760208186018101518583015201610cb8565b506000920191825250919050565b600060208284031215610cf257600080fd5b5051919050565b6bffffffffffffffffffffffff19606097881b8116825295871b861660148201529390951b9093166028830152603c820152605c810191909152607c810191909152609c019056fea264697066735822122088a2cff71ba0f101469fc01b11fa603a0def3cacf989424a7722246592d4b5fe64736f6c63430008140033a26469706673582212201fed838007aad1e61980385dee7fba064ef669856875f3b49f155cf92e47958964736f6c63430008140033",
  "linkReferences": {},
  "deployedLinkReferences": {}
}