{"src/Resolver.sol":{"Resolver":{"abi":[{"anonymous":false,"inputs":[{"indexed":false,"internalType":"bytes32","name":"id","type":"bytes32"},{"indexed":false,"internalType":"uint256","name":"amount","type":"uint256"},{"indexed":false,"internalType":"bytes32","name":"preimage","type":"bytes32"}],"name":"SwapFilled","type":"event"},{"anonymous":false,"inputs":[{"indexed":false,"internalType":"bytes32","name":"id","type":"bytes32"},{"indexed":false,"internalType":"address","name":"escrow","type":"address"},{"indexed":false,"internalType":"uint16","name":"toChain","type":"uint16"},{"indexed":false,"internalType":"uint256","name":"amount","type":"uint256"},{"indexed":false,"internalType":"bytes32","name":"hash","type":"bytes32"}],"name":"SwapOpened","type":"event"},{"inputs":[{"internalType":"bytes32","name":"id","type":"bytes32"},{"internalType":"bytes32","name":"preimage","type":"bytes32"},{"internalType":"uint256","name":"part","type":"uint256"}],"name":"fillSwap","outputs":[],"stateMutability":"nonpayable","type":"function"},{"inputs":[{"internalType":"address","name":"escrow","type":"address"},{"internalType":"uint16","name":"toChain","type":"uint16"},{"internalType":"uint256","name":"amount","type":"uint256"},{"internalType":"bytes32","name":"hash","type":"bytes32"},{"internalType":"uint256","name":"timelock","type":"uint256"}],"name":"openSwap","outputs":[{"internalType":"bytes32","name":"id","type":"bytes32"}],"stateMutability":"nonpayable","type":"function"},{"inputs":[{"internalType":"bytes32","name":"id","type":"bytes32"}],"name":"remaining","outputs":[{"internalType":"uint256","name":"","type":"uint256"}],"stateMutability":"view","type":"function"},{"inputs":[{"internalType":"bytes32","name":"","type":"bytes32"}],"name":"swaps","outputs":[{"internalType":"address","name":"escrow","type":"address"},{"internalType":"uint32","name":"toChain","type":"uint32"},{"internalType":"uint256","name":"total","type":"uint256"},{"internalType":"uint256","name":"filled","type":"uint256"},{"internalType":"bytes32","name":"hash","type":"bytes32"},{"internalType":"uint256","name":"timelock","type":"uint256"}],"stateMutability":"view","type":"function"}],"evm":{"bytecode":{"linkReferences":{},"object":"608060405234801561001057600080fd5b5061063a806100206000396000f3fe608060405234801561001057600080fd5b506004361061004c5760003560e01c80637548f02114610051578063bc1ed74c14610077578063cb79a43f1461008a578063eb84e7f21461009f575b600080fd5b61006461005f3660046104d1565b61012c565b6040519081526020015b60405180910390f35b610064610085366004610535565b61027d565b61009d61009836600461054e565b6102a6565b005b6100f06100ad366004610535565b600060208190529081526040902080546001820154600283015460038401546004909401546001600160a01b03841694600160a01b90940463ffffffff16939086565b604080516001600160a01b03909716875263ffffffff9095166020870152938501929092526060840152608083015260a082015260c00161006e565b6040516bffffffffffffffffffffffff19606087901b166020820152603481018390526054810184905242607482015260009060940160408051601f19818403018152828252805160209182012060c0840183526001600160a01b03808b16855261ffff8a168584019081528585018a8152600060608801818152608089018c815260a08a018c8152878452978390529188902098518954945163ffffffff16600160a01b026001600160c01b0319909516951694909417929092178755516001870155905160028601555160038501559051600490930192909255519091507f2d0f7fecc7443d5d6137bf47bb88f5888da0f1dd7a8734dc2a99c07aada278ac9061026c90839089908990899089909485526001600160a01b0393909316602085015261ffff9190911660408401526060830152608082015260a00190565b60405180910390a195945050505050565b60008181526020819052604081206002810154600182015461029f9190610590565b9392505050565b600083815260208190526040902060018101546102f45760405162461bcd60e51b815260206004820152600760248201526606e6f20737761760cc1b60448201526064015b60405180910390fd5b806001015482826002015461030991906105a9565b11156103425760405162461bcd60e51b81526020600482015260086024820152671bdd995c999a5b1b60c21b60448201526064016102eb565b806003015460028460405160200161035c91815260200190565b60408051601f1981840301815290829052610376916105bc565b602060405180830381855afa158015610393573d6000803e3d6000fd5b5050506040513d601f19601f820116820180604052508101906103b691906105eb565b146103f25760405162461bcd60e51b815260206004820152600c60248201526b62616420707265696d61676560a01b60448201526064016102eb565b8181600201600082825461040691906105a9565b9091555050805462aa36a619600160a01b90910463ffffffff160161048a5780546040516384cc9dfb60e01b815260048101869052602481018590526001600160a01b03909116906384cc9dfb90604401600060405180830381600087803b15801561047157600080fd5b505af1158015610485573d6000803e3d6000fd5b505050505b60408051858152602081018490529081018490527fcb9d1a4833a1a212009caeb5d0aa2b4c620f0de5eb53d9b4b7b6e9bfffe0e3839060600160405180910390a150505050565b600080600080600060a086880312156104e957600080fd5b85356001600160a01b038116811461050057600080fd5b9450602086013561ffff8116811461051757600080fd5b94979496505050506040830135926060810135926080909101359150565b60006020828403121561054757600080fd5b5035919050565b60008060006060848603121561056357600080fd5b505081359360208301359350604090920135919050565b634e487b7160e01b600052601160045260246000fd5b818103818111156105a3576105a361057a565b92915050565b808201808211156105a3576105a361057a565b6000825160005b818110156105dd57602081860181015185830152016105c3565b506000920191825250919050565b6000602082840312156105fd57600080fd5b505191905056fea2646970667358221220d2bbbf9a72cefbe597ac6c694ee16b825dba17c57e7acd016b8a20a30fa1940464736f6c63430008140033","opcodes":"PUSH1 0x80 PUSH1 0x40 MSTORE CALLVALUE DUP1 ISZERO PUSH2 0x10 JUMPI PUSH1 0x0 DUP1 REVERT JUMPDEST POP PUSH2 0x63A DUP1 PUSH2 0x20 PUSH1 0x0 CODECOPY PUSH1 0x0 RETURN INVALID PUSH1 0x80 PUSH1 0x40 MSTORE CALLVALUE DUP1 ISZERO PUSH2 0x10 JUMPI PUSH1 0x0 DUP1 REVERT JUMPDEST POP PUSH1 0x4 CALLDATASIZE LT PUSH2 0x4C JUMPI PUSH1 0x0 CALLDATALOAD PUSH1 0xE0 SHR DUP1 PUSH4 0x7548F021 EQ PUSH2 0x51 JUMPI DUP1 PUSH4 0xBC1ED74C EQ PUSH2 0x77 JUMPI DUP1 PUSH4 0xCB79A43F EQ PUSH2 0x8A JUMPI DUP1 PUSH4 0xEB84E7F2 EQ PUSH2 0x9F JUMPI JUMPDEST PUSH1 0x0 DUP1 REVERT JUMPDEST PUSH2 0x64 PUSH2 0x5F CALLDATASIZE PUSH1 0x4 PUSH2 0x4D1 JUMP JUMPDEST PUSH2 0x12C JUMP JUMPDEST PUSH1 0x40 MLOAD SWAP1 DUP2 MSTORE PUSH1 0x20 ADD JUMPDEST PUSH1 0x40 MLOAD DUP1 SWAP2 SUB SWAP1 RETURN JUMPDEST PUSH2 0x64 PUSH2 0x85 CALLDATASIZE PUSH1 0x4 PUSH2 0x535 JUMP JUMPDEST PUSH2 0x27D JUMP JUMPDEST PUSH2 0x9D PUSH2 0x98 CALLDATASIZE PUSH1 0x4 PUSH2 0x54E JUMP JUMPDEST PUSH2 0x2A6 JUMP JUMPDEST STOP JUMPDEST PUSH2 0xF0 PUSH2 0xAD CALLDATASIZE PUSH1 0x4 PUSH2 0x535 JUMP JUMPDEST PUSH1 0x0 PUSH1 0x20 DUP2 SWAP1 MSTORE SWAP1 DUP2 MSTORE PUSH1 0x40 SWAP1 KECCAK256 DUP1 SLOAD PUSH1 0x1 DUP3 ADD SLOAD PUSH1 0x2 DUP4 ADD SLOAD PUSH1 0x3 DUP5 ADD SLOAD PUSH1 0x4 SWAP1 SWAP5 ADD SLOAD PUSH1 0x1 PUSH1 0x1 PUSH1 0xA0 SHL SUB DUP5 AND SWAP5 PUSH1 0x1 PUSH1 0xA0 SHL SWAP1 SWAP5 DIV PUSH4 0xFFFFFFFF AND SWAP4 SWAP1 DUP7 JUMP JUMPDEST PUSH1 0x40 DUP1 MLOAD PUSH1 0x1 PUSH1 0x1 PUSH1 0xA0 SHL SUB SWAP1 SWAP8 AND DUP8 MSTORE PUSH4 0xFFFFFFFF SWAP1 SWAP6 AND PUSH1 0x20 DUP8 ADD MSTORE SWAP4 DUP6 ADD SWAP3 SWAP1 SWAP3 MSTORE PUSH1 0x60 DUP5 ADD MSTORE PUSH1 0x80 DUP4 ADD MSTORE PUSH1 0xA0 DUP3 ADD MSTORE PUSH1 0xC0 ADD PUSH2 0x6E JUMP JUMPDEST PUSH1 0x40 MLOAD PUSH12 0xFFFFFFFFFFFFFFFFFFFFFFFF NOT PUSH1 0x60 DUP8 SWAP1 SHL AND PUSH1 0x20 DUP3 ADD MSTORE PUSH1 0x34 DUP2 ADD DUP4 SWAP1 MSTORE PUSH1 0x54 DUP2 ADD DUP5 SWAP1 MSTORE TIMESTAMP PUSH1 0x74 DUP3 ADD MSTORE PUSH1 0x0 SWAP1 PUSH1 0x94 ADD PUSH1 0x40 DUP1 MLOAD PUSH1 0x1F NOT DUP2 DUP5 SUB ADD DUP2 MSTORE DUP3 DUP3 MSTORE DUP1 MLOAD PUSH1 0x20 SWAP2 DUP3 ADD KECCAK256 PUSH1 0xC0 DUP5 ADD DUP4 MSTORE PUSH1 0x1 PUSH1 0x1 PUSH1 0xA0 SHL SUB DUP1 DUP12 AND DUP6 MSTORE PUSH2 0xFFFF DUP11 AND DUP6 DUP5 ADD SWAP1 DUP2 MSTORE DUP6 DUP6 ADD DUP11 DUP2 MSTORE PUSH1 0x0 PUSH1 0x60 DUP9 ADD DUP2 DUP2 MSTORE PUSH1 0x80 DUP10 ADD DUP13 DUP2 MSTORE PUSH1 0xA0 DUP11 ADD DUP13 DUP2 MSTORE DUP8 DUP5 MSTORE SWAP8 DUP4 SWAP1 MSTORE SWAP2 DUP9 SWAP1 KECCAK256 SWAP9 MLOAD DUP10 SLOAD SWAP5 MLOAD PUSH4 0xFFFFFFFF AND PUSH1 0x1 PUSH1 0xA0 SHL MUL PUSH1 0x1 PUSH1 0x1 PUSH1 0xC0 SHL SUB NOT SWAP1 SWAP6 AND SWAP6 AND SWAP5 SWAP1 SWAP5 OR SWAP3 SWAP1 SWAP3 OR DUP8 SSTORE MLOAD PUSH1 0x1 DUP8 ADD SSTORE SWAP1 MLOAD PUSH1 0x2 DUP7 ADD SSTORE MLOAD PUSH1 0x3 DUP6 ADD SSTORE SWAP1 MLOAD PUSH1 0x4 SWAP1 SWAP4 ADD SWAP3 SWAP1 SWAP3 SSTORE MLOAD SWAP1 SWAP2 POP PUSH32 0x2D0F7FECC7443D5D6137BF47BB88F5888DA0F1DD7A8734DC2A99C07AADA278AC SWAP1 PUSH2 0x26C SWAP1 DUP4 SWAP1 DUP10 SWAP1 DUP10 SWAP1 DUP10 SWAP1 DUP10 SWAP1 SWAP5 DUP6 MSTORE PUSH1 0x1 PUSH1 0x1 PUSH1 0xA0 SHL SUB SWAP4 SWAP1 SWAP4 AND PUSH1 0x20 DUP6 ADD MSTORE PUSH2 0xFFFF SWAP2 SWAP1 SWAP2 AND PUSH1 0x40 DUP5 ADD MSTORE PUSH1 0x60 DUP4 ADD MSTORE PUSH1 0x80 DUP3 ADD MSTORE PUSH1 0xA0 ADD SWAP1 JUMP JUMPDEST PUSH1 0x40 MLOAD DUP1 SWAP2 SUB SWAP1 LOG1 SWAP6 SWAP5 POP POP POP POP POP JUMP JUMPDEST PUSH1 0x0 DUP2 DUP2 MSTORE PUSH1 0x20 DUP2 SWAP1 MSTORE PUSH1 0x40 DUP2 KECCAK256 PUSH1 0x2 DUP2 ADD SLOAD PUSH1 0x1 DUP3 ADD SLOAD PUSH2 0x29F SWAP2 SWAP1 PUSH2 0x590 JUMP JUMPDEST SWAP4 SWAP3 POP POP POP JUMP JUMPDEST PUSH1 0x0 DUP4 DUP2 MSTORE PUSH1 0x20 DUP2 SWAP1 MSTORE PUSH1 0x40 SWAP1 KECCAK256 PUSH1 0x1 DUP2 ADD SLOAD PUSH2 0x2F4 JUMPI PUSH1 0x40 MLOAD PUSH3 0x461BCD PUSH1 0xE5 SHL DUP2 MSTORE PUSH1 0x20 PUSH1 0x4 DUP3 ADD MSTORE PUSH1 0x7 PUSH1 0x24 DUP3 ADD MSTORE PUSH7 0x6E6F207377617 PUSH1 0xCC SHL PUSH1 0x44 DUP3 ADD MSTORE PUSH1 0x64 ADD JUMPDEST PUSH1 0x40 MLOAD DUP1 SWAP2 SUB SWAP1 REVERT JUMPDEST DUP1 PUSH1 0x1 ADD SLOAD DUP3 DUP3 PUSH1 0x2 ADD SLOAD PUSH2 0x309 SWAP2 SWAP1 PUSH2 0x5A9 JUMP JUMPDEST GT ISZERO PUSH2 0x342 JUMPI PUSH1 0x40 MLOAD PUSH3 0x461BCD PUSH1 0xE5 SHL DUP2 MSTORE PUSH1 0x20 PUSH1 0x4 DUP3 ADD MSTORE PUSH1 0x8 PUSH1 0x24 DUP3 ADD MSTORE PUSH8 0x1BDD995C999A5B1B PUSH1 0xC2 SHL PUSH1 0x44 DUP3 ADD MSTORE PUSH1 0x64 ADD PUSH2 0x2EB JUMP JUMPDEST DUP1 PUSH1 0x3 ADD SLOAD PUSH1 0x2 DUP5 PUSH1 0x40 MLOAD PUSH1 0x20 ADD PUSH2 0x35C SWAP2 DUP2 MSTORE PUSH1 0x20 ADD SWAP1 JUMP JUMPDEST PUSH1 0x40 DUP1 MLOAD PUSH1 0x1F NOT DUP2 DUP5 SUB ADD DUP2 MSTORE SWAP1 DUP3 SWAP1 MSTORE PUSH2 0x376 SWAP2 PUSH2 0x5BC JUMP JUMPDEST PUSH1 0x20 PUSH1 0x40 MLOAD DUP1 DUP4 SUB DUP2 DUP6 GAS STATICCALL ISZERO DUP1 ISZERO PUSH2 0x393 JUMPI RETURNDATASIZE PUSH1 0x0 DUP1 RETURNDATACOPY RETURNDATASIZE PUSH1 0x0 REVERT JUMPDEST POP POP POP PUSH1 0x40 MLOAD RETURNDATASIZE PUSH1 0x1F NOT PUSH1 0x1F DUP3 ADD AND DUP3 ADD DUP1 PUSH1 0x40 MSTORE POP DUP2 ADD SWAP1 PUSH2 0x3B6 SWAP2 SWAP1 PUSH2 0x5EB JUMP JUMPDEST EQ PUSH2 0x3F2 JUMPI PUSH1 0x40 MLOAD PUSH3 0x461BCD PUSH1 0xE5 SHL DUP2 MSTORE PUSH1 0x20 PUSH1 0x4 DUP3 ADD MSTORE PUSH1 0xC PUSH1 0x24 DUP3 ADD MSTORE PUSH12 0x62616420707265696D616765 PUSH1 0xA0 SHL PUSH1 0x44 DUP3 ADD MSTORE PUSH1 0x64 ADD PUSH2 0x2EB JUMP JUMPDEST DUP2 DUP2 PUSH1 0x2 ADD PUSH1 0x0 DUP3 DUP3 SLOAD PUSH2 0x406 SWAP2 SWAP1 PUSH2 0x5A9 JUMP JUMPDEST SWAP1 SWAP2 SSTORE POP POP DUP1 SLOAD PUSH3 0xAA36A6 NOT PUSH1 0x1 PUSH1 0xA0 SHL SWAP1 SWAP2 DIV PUSH4 0xFFFFFFFF AND ADD PUSH2 0x48A JUMPI DUP1 SLOAD PUSH1 0x40 MLOAD PUSH4 0x84CC9DFB PUSH1 0xE0 SHL DUP2 MSTORE PUSH1 0x4 DUP2 ADD DUP7 SWAP1 MSTORE PUSH1 0x24 DUP2 ADD DUP6 SWAP1 MSTORE PUSH1 0x1 PUSH1 0x1 PUSH1 0xA0 SHL SUB SWAP1 SWAP2 AND SWAP1 PUSH4 0x84CC9DFB SWAP1 PUSH1 0x44 ADD PUSH1 0x0 PUSH1 0x40 MLOAD DUP1 DUP4 SUB DUP2 PUSH1 0x0 DUP8 DUP1 EXTCODESIZE ISZERO DUP1 ISZERO PUSH2 0x471 JUMPI PUSH1 0x0 DUP1 REVERT JUMPDEST POP GAS CALL ISZERO DUP1 ISZERO PUSH2 0x485 JUMPI RETURNDATASIZE PUSH1 0x0 DUP1 RETURNDATACOPY RETURNDATASIZE PUSH1 0x0 REVERT JUMPDEST POP POP POP POP JUMPDEST PUSH1 0x40 DUP1 MLOAD DUP6 DUP2 MSTORE PUSH1 0x20 DUP2 ADD DUP5 SWAP1 MSTORE SWAP1 DUP2 ADD DUP5 SWAP1 MSTORE PUSH32 0xCB9D1A4833A1A212009CAEB5D0AA2B4C620F0DE5EB53D9B4B7B6E9BFFFE0E383 SWAP1 PUSH1 0x60 ADD PUSH1 0x40 MLOAD DUP1 SWAP2 SUB SWAP1 LOG1 POP POP POP POP JUMP JUMPDEST PUSH1 0x0 DUP1 PUSH1 0x0 DUP1 PUSH1 0x0 PUSH1 0xA0 DUP7 DUP9 SUB SLT ISZERO PUSH2 0x4E9 JUMPI PUSH1 0x0 DUP1 REVERT JUMPDEST DUP6 CALLDATALOAD PUSH1 0x1 PUSH1 0x1 PUSH1 0xA0 SHL SUB DUP2 AND DUP2 EQ PUSH2 0x500 JUMPI PUSH1 0x0 DUP1 REVERT JUMPDEST SWAP5 POP PUSH1 0x20 DUP7 ADD CALLDATALOAD PUSH2 0xFFFF DUP2 AND DUP2 EQ PUSH2 0x517 JUMPI PUSH1 0x0 DUP1 REVERT JUMPDEST SWAP5 SWAP8 SWAP5 SWAP7 POP POP POP POP PUSH1 0x40 DUP4 ADD CALLDATALOAD SWAP3 PUSH1 0x60 DUP2 ADD CALLDATALOAD SWAP3 PUSH1 0x80 SWAP1 SWAP2 ADD CALLDATALOAD SWAP2 POP JUMP JUMPDEST PUSH1 0x0 PUSH1 0x20 DUP3 DUP5 SUB SLT ISZERO PUSH2 0x547 JUMPI PUSH1 0x0 DUP1 REVERT JUMPDEST POP CALLDATALOAD SWAP2 SWAP1 POP JUMP JUMPDEST PUSH1 0x0 DUP1 PUSH1 0x0 PUSH1 0x60 DUP5 DUP7 SUB SLT ISZERO PUSH2 0x563 JUMPI PUSH1 0x0 DUP1 REVERT JUMPDEST POP POP DUP2 CALLDATALOAD SWAP4 PUSH1 0x20 DUP4 ADD CALLDATALOAD SWAP4 POP PUSH1 0x40 SWAP1 SWAP3 ADD CALLDATALOAD SWAP2 SWAP1 POP JUMP JUMPDEST PUSH4 0x4E487B71 PUSH1 0xE0 SHL PUSH1 0x0 MSTORE PUSH1 0x11 PUSH1 0x4 MSTORE PUSH1 0x24 PUSH1 0x0 REVERT JUMPDEST DUP2 DUP2 SUB DUP2 DUP2 GT ISZERO PUSH2 0x5A3 JUMPI PUSH2 0x5A3 PUSH2 0x57A JUMP JUMPDEST SWAP3 SWAP2 POP POP JUMP JUMPDEST DUP1 DUP3 ADD DUP1 DUP3 GT ISZERO PUSH2 0x5A3 JUMPI PUSH2 0x5A3 PUSH2 0x57A JUMP JUMPDEST PUSH1 0x0 DUP3 MLOAD PUSH1 0x0 JUMPDEST DUP2 DUP2 LT ISZERO PUSH2 0x5DD JUMPI PUSH1 0x20 DUP2 DUP7 ADD DUP2 ADD MLOAD DUP6 DUP4 ADD MSTORE ADD PUSH2 0x5C3 JUMP JUMPDEST POP PUSH1 0x0 SWAP3 ADD SWAP2 DUP3 MSTORE POP SWAP2 SWAP1 POP JUMP JUMPDEST PUSH1 0x0 PUSH1 0x20 DUP3 DUP5 SUB SLT ISZERO PUSH2 0x5FD JUMPI PUSH1 0x0 DUP1 REVERT JUMPDEST POP MLOAD SWAP2 SWAP1 POP JUMP INVALID LOG2 PUSH5 0x6970667358 0x22 SLT KECCAK256 0xD2 0xBB 0xBF SWAP11 PUSH19 0xCEFBE597AC6C694EE16B825DBA17C57E7ACD01 PUSH12 0x8A20A30FA1940464736F6C63 NUMBER STOP ADDMOD EQ STOP CALLER "},"methodIdentifiers":{"fillSwap(bytes32,bytes32,uint256)":"cb79a43f","openSwap(address,uint16,uint256,bytes32,uint256)":"7548f021","remaining(bytes32)":"bc1ed74c","swaps(bytes32)":"eb84e7f2"}}}}}