{
  "_format": "hh-sol-artifact-1",
  "contractName": "HTLC",
  "sourceName": "src/HTLC.sol",
  "abi": [
    {
      "anonymous": false,
      "inputs": [
        {
          "indexed": true,
          "internalType": "bytes32",
          "name": "id",
          "type": "bytes32"
        },
        {
          "indexed": false,
          "internalType": "bytes32",
          "name": "preimage",
          "type": "bytes32"
        }
      ],
      "name": "Claimed",
      "type": "event"
    },
    {
      "anonymous": false,
      "inputs": [
        {
          "indexed": true,
          "internalType": "bytes32",
          "name": "id",
          "type": "bytes32"
        },
        {
          "indexed": true,
          "internalType": "address",
          "name": "sender",
          "type": "address"
        },
        {
          "indexed": true,
          "internalType": "address",
          "name": "recipient",
          "type": "address"
        },
        {
          "indexed": false,
          "internalType": "address",
          "name": "token",
          "type": "address"
        },
        {
          "indexed": false,
          "internalType": "uint256",
          "name": "amount",
          "type": "uint256"
        },
        {
          "indexed": false,
          "internalType": "bytes32",
          "name": "hash",
          "type": "bytes32"
        },
        {
          "indexed": false,
          "internalType": "uint256",
          "name": "timelock",
          "type": "uint256"
        }
      ],
      "name": "Locked",
      "type": "event"
    },
    {
      "anonymous": false,
      "inputs": [
        {
          "indexed": true,
          "internalType": "bytes32",
          "name": "id",
          "type": "bytes32"
        }
      ],
      "name": "Refunded",
      "type": "event"
    },
    {
      "inputs": [
        {
          "internalType": "bytes32",
          "name": "id",
          "type": "bytes32"
        },
        {
          "internalType": "bytes32",
          "name": "preimage",
          "type": "bytes32"
        }
      ],
      "name": "claim",
      "outputs": [],
      "stateMutability": "nonpayable",
      "type": "function"
    },
    {
      "inputs": [
        {
          "internalType": "address",
          "name": "recipient",
          "type": "address"
        },
        {
          "internalType": "address",
          "name": "token",
          "type": "address"
        },
        {
          "internalType": "uint256",
          "name": "amount",
          "type": "uint256"
        },
        {
          "internalType": "bytes32",
          "name": "hash",
          "type": "bytes32"
        },
        {
          "internalType": "uint256",
          "name": "timelock",
          "type": "uint256"
        }
      ],
      "name": "lock",
      "outputs": [
        {
          "internalType": "bytes32",
          "name": "id",
          "type": "bytes32"
        }
      ],
      "stateMutability": "nonpayable",
      "type": "function"
    },
    {
      "inputs": [
        {
          "internalType": "address",
          "name": "recipient",
          "type": "address"
        },
        {
          "internalType": "bytes32",
          "name": "hash",
          "type": "bytes32"
        },
        {
          "internalType": "uint256",
          "name": "timelock",
          "type": "uint256"
        }
      ],
      "name": "lockETH",
      "outputs": [
        {
          "internalType": "bytes32",
          "name": "id",
          "type": "bytes32"
        }
      ],
      "stateMutability": "payable",
      "type": "function"
    },
    {
      "inputs": [
        {
          "internalType": "bytes32",
          "name": "id",
          "type": "bytes32"
        }
      ],
      "name": "refund",
      "outputs": [],
      "stateMutability": "nonpayable",
      "type": "function"
    },
    {
      "inputs": [
        {
          "internalType": "bytes32",
          "name": "",
          "type": "bytes32"
        }
      ],
      "name": "swaps",
      "outputs": [
        {
          "internalType": "address",
          "name": "sender",
          "type": "address"
        },
        {
          "internalType": "address",
          "name": "recipient",
          "type": "address"
        },
        {
          "internalType": "address",
          "name": "token",
          "type": "address"
        },
        {
          "internalType": "uint256",
          "name": "amount",
          "type": "uint256"
        },
        {
          "internalType": "bytes32",
          "name": "hash",
          "type": "bytes32"
        },
        {
          "internalType": "uint256",
          "name": "timelock",
          "type": "uint256"
        },
        {
          "internalType": "bool",
          "name": "claimed",
          "type": "bool"
        },
        {
          "internalType": "bool",
          "name": "refunded",
          "type": "bool"
        }
      ],
      "stateMutability": "view",
      "type": "function"
    }
  ],
  "bytecode": "0x608060405234801561001057600080fd5b50610d77806100206000396000f3fe60806040526004361061004a5760003560e01c80637249fbb61461004f57806384cc9dfb14610071578063c814c90b14610091578063cd61efed146100b7578063eb84e7f2146100d7575b600080fd5b34801561005b57600080fd5b5061006f61006a366004610bb1565b610197565b005b34801561007d57600080fd5b5061006f61008c366004610bca565b610387565b6100a461009f366004610c08565b610637565b6040519081526020015b60405180910390f35b3480156100c357600080fd5b506100a46100d2366004610c3b565b6108fd565b3480156100e357600080fd5b506101496100f2366004610bb1565b60006020819052908152604090208054600182015460028301546003840154600485015460058601546006909601546001600160a01b03958616969486169590931693919290919060ff8082169161010090041688565b604080516001600160a01b03998a168152978916602089015295909716948601949094526060850192909252608084015260a0830152151560c082015290151560e0820152610100016100ae565b600081815260208190526040902080546001600160a01b031633146101f05760405162461bcd60e51b815260206004820152600a6024820152692737ba1039b2b73232b960b11b60448201526064015b60405180910390fd5b600681015460ff1615801561020f57506006810154610100900460ff16155b6102445760405162461bcd60e51b81526004016101e790602080825260049082015263646f6e6560e01b604082015260600190565b80600501544210156102805760405162461bcd60e51b81526020600482015260056024820152646561726c7960d81b60448201526064016101e7565b60068101805461ff00191661010017905560028101546001600160a01b03166102d9576003810154604051339180156108fc02916000818181858888f193505050501580156102d3573d6000803e3d6000fd5b50610358565b6002810154600382015460405163a9059cbb60e01b815233600482015260248101919091526001600160a01b039091169063a9059cbb906044016020604051808303816000875af1158015610332573d6000803e3d6000fd5b505050506040513d601f19601f820116820180604052508101906103569190610c88565b505b60405182907ffe509803c09416b28ff3d8f690c8b0c61462a892c46d5430c8fb20abe472daf090600090a25050565b600082815260208190526040902060018101546001600160a01b031633146103e15760405162461bcd60e51b815260206004820152600d60248201526c139bdd081c9958da5c1a595b9d609a1b60448201526064016101e7565b600681015460ff1615801561040057506006810154610100900460ff16155b6104355760405162461bcd60e51b81526004016101e790602080825260049082015263646f6e6560e01b604082015260600190565b806004015460028360405160200161044f91815260200190565b60408051601f198184030181529082905261046991610cb1565b602060405180830381855afa158015610486573d6000803e3d6000fd5b5050506040513d601f19601f820116820180604052508101906104a99190610ce0565b146104e55760405162461bcd60e51b815260206004820152600c60248201526b62616420707265696d61676560a01b60448201526064016101e7565b806005015442106105225760405162461bcd60e51b8152602060048201526007602482015266195e1c1a5c995960ca1b60448201526064016101e7565b60068101805460ff1916600117905560028101546001600160a01b0316610579576003810154604051339180156108fc02916000818181858888f19350505050158015610573573d6000803e3d6000fd5b506105f8565b6002810154600382015460405163a9059cbb60e01b815233600482015260248101919091526001600160a01b039091169063a9059cbb906044016020604051808303816000875af11580156105d2573d6000803e3d6000fd5b505050506040513d601f19601f820116820180604052508101906105f69190610c88565b505b827f38d6042dbdae8e73a7f6afbabd3fbe0873f9f5ed3cd71294591c3908c2e65fee8360405161062a91815260200190565b60405180910390a2505050565b60008034116106735760405162461bcd60e51b81526020600482015260086024820152676e6f2076616c756560c01b60448201526064016101e7565b4282116106ad5760405162461bcd60e51b81526020600482015260086024820152676261642074696d6560c01b60448201526064016101e7565b338460003486866040516020016106c996959493929190610cf9565b60408051601f1981840301815291815281516020928301206000818152928390529120549091506001600160a01b03161561072c5760405162461bcd60e51b815260206004820152600360248201526206475760ec1b60448201526064016101e7565b604051806101000160405280336001600160a01b03168152602001856001600160a01b0316815260200160006001600160a01b031681526020013481526020018481526020018381526020016000151581526020016000151581525060008083815260200190815260200160002060008201518160000160006101000a8154816001600160a01b0302191690836001600160a01b0316021790555060208201518160010160006101000a8154816001600160a01b0302191690836001600160a01b0316021790555060408201518160020160006101000a8154816001600160a01b0302191690836001600160a01b03160217905550606082015181600301556080820151816004015560a0820151816005015560c08201518160060160006101000a81548160ff02191690831515021790555060e08201518160060160016101000a81548160ff021916908315150217905550905050836001600160a01b0316336001600160a01b0316827f14442dbf5e9aa943f3b7681bdf4e57c3256930c69ccc137263150f7e01bd51cf60003488886040516108ee94939291906001600160a01b0394909416845260208401929092526040830152606082015260800190565b60405180910390a49392505050565b600080841161093a5760405162461bcd60e51b81526020600482015260096024820152681b9bc8185b5bdd5b9d60ba1b60448201526064016101e7565b6040516323b872dd60e01b8152336004820152306024820152604481018590526001600160a01b038616906323b872dd906064016020604051808303816000875af115801561098d573d6000803e3d6000fd5b505050506040513d601f19601f820116820180604052508101906109b19190610c88565b504282116109ec5760405162461bcd60e51b81526020600482015260086024820152676261642074696d6560c01b60448201526064016101e7565b338686868686604051602001610a0796959493929190610cf9565b60408051601f1981840301815291815281516020928301206000818152928390529120549091506001600160a01b031615610a6a5760405162461bcd60e51b815260206004820152600360248201526206475760ec1b60448201526064016101e7565b604080516101008082018352338083526001600160a01b038a811660208086018281528c8416878901908152606088018d8152608089018d815260a08a018d8152600060c08c0181815260e08d018281528f835297829052908d90209b518c54908a166001600160a01b0319918216178d55955160018d018054918b16918816919091179055935160028c01805491909916951694909417909655516003890155935160048801555160058701559151600690950180549251151590940261ff00199515159590951661ffff199092169190911793909317909155915190919083907f14442dbf5e9aa943f3b7681bdf4e57c3256930c69ccc137263150f7e01bd51cf90610ba0908a908a908a908a906001600160a01b0394909416845260208401929092526040830152606082015260800190565b60405180910390a495945050505050565b600060208284031215610bc357600080fd5b5035919050565b60008060408385031215610bdd57600080fd5b50508035926020909101359150565b80356001600160a01b0381168114610c0357600080fd5b919050565b600080600060608486031215610c1d57600080fd5b610c2684610bec565b95602085013595506040909401359392505050565b600080600080600060a08688031215610c5357600080fd5b610c5c86610bec565b9450610c6a60208701610bec565b94979496505050506040830135926060810135926080909101359150565b600060208284031215610c9a57600080fd5b81518015158114610caa57600080fd5b9392505050565b6000825160005b81811015610cd25760208186018101518583015201610cb8565b506000920191825250919050565b600060208284031215610cf257600080fd5b5051919050565b6bffffffffffffffffffffffff19606097881b8116825295871b861660148201529390951b9093166028830152603c820152605c810191909152607c810191909152609c019056fea264697066735822122088a2cff71ba0f101469fc01b11fa603a0def3cacf989424a7722246592d4b5fe64736f6c63430008140033",
  "linkReferences": {},
  "deployedLinkReferences": {}
}