{
  "_format": "hh-sol-artifact-1",
  "contractName": "HTLC",
  "sourceName": "src/HTLC.sol",
  "abi": [
    {
      "anonymous": false,
      "inputs": [
        {
          "indexed": true,
          "internalType": "bytes32",
          "name": "id",
          "type": "bytes32"
        },
        {
          "indexed": false,
          "internalType": "bytes32",
          "name": "preimage",
          "type": "bytes32"
        }
      ],
      "name": "Claimed",
      "type": "event"
    },
    {
      "anonymous": false,
      "inputs": [
        {
          "indexed": true,
          "internalType": "bytes32",
          "name": "id",
          "type": "bytes32"
        },
        {
          "indexed": true,
          "internalType": "address",
          "name": "sender",
          "type": "address"
        },
        {
          "indexed": true,
          "internalType": "address",
          "name": "recipient",
          "type": "address"
        },
        {
          "indexed": false,
          "internalType": "address",
          "name": "token",
          "type": "address"
        },
        {
          "indexed": false,
          "internalType": "uint256",
          "name": "amount",
          "type": "uint256"
        },
        {
          "indexed": false,
          "internalType": "bytes32",
          "name": "hash",
          "type": "bytes32"
        },
        {
          "indexed": false,
          "internalType": "uint256",
          "name": "timelock",
          "type": "uint256"
        }
      ],
      "name": "Locked",
      "type": "event"
    },
    {
      "anonymous": false,
      "inputs": [
        {
          "indexed": true,
          "internalType": "bytes32",
          "name": "id",
          "type": "bytes32"
        }
      ],
      "name": "Refunded",
      "type": "event"
    },
    {
      "inputs": [
        {
          "internalType": "bytes32",
          "name": "id",
          "type": "bytes32"
        },
        {
          "internalType": "bytes32",
          "name": "preimage",
          "type": "bytes32"
        }
      ],
      "name": "claim",
      "outputs": [],
      "stateMutability": "nonpayable",
      "type": "function"
    },
    {
      "inputs": [
        {
          "internalType": "address",
          "name": "recipient",
          "type": "address"
        },
        {
          "internalType": "address",
          "name": "token",
          "type": "address"
        },
        {
          "internalType": "uint256",
          "name": "amount",
          "type": "uint256"
        },
        {
          "internalType": "bytes32",
          "name": "hash",
          "type": "bytes32"
        },
        {
          "internalType": "uint256",
          "name": "timelock",
          "type": "uint256"
        }
      ],
      "name": "lock",
      "outputs": [
        {
          "internalType": "bytes32",
          "name": "id",
          "type": "bytes32"
        }
      ],
      "stateMutability": "nonpayable",
      "type": "function"
    },
    {
      "inputs": [
        {
          "internalType": "address",
          "name": "recipient",
          "type": "address"
        },
        {
          "internalType": "bytes32",
          "name": "hash",
          "type": "bytes32"
        },
        {
          "internalType": "uint256",
          "name": "timelock",
          "type": "uint256"
        }
      ],
      "name": "lockETH",
      "outputs": [
        {
          "internalType": "bytes32",
          "name": "id",
          "type": "bytes32"
        }
      ],
      "stateMutability": "payable",
      "type": "function"
    },
    {
      "inputs": [
        {
          "internalType": "bytes32",
          "name": "id",
          "type": "bytes32"
        }
      ],
      "name": "refund",
      "outputs": [],
      "stateMutability": "nonpayable",
      "type": "function"
    },
    {
      "inputs": [
        {
          "internalType": "bytes32",
          "name": "",
          "type": "bytes32"
        }
      ],
      "name": "swaps",
      "outputs": [
        {
          "internalType": "address",
          "name": "sender",
          "type": "address"
        },
        {
          "internalType": "address",
          "name": "recipient",
          "type": "address"
        },
        {
          "internalType": "address",
          "name": "token",
          "type": "address"
        },
        {
          "internalType": "uint256",
          "name": "amount",
          "type": "uint256"
        },
        {
          "internalType": "bytes32",
          "name": "hash",
          "type": "bytes32"
        },
        {
          "internalType": "uint256",
          "name": "timelock",
          "type": "uint256"
        },
        {
          "internalType": "bool",
          "name": "claimed",
          "type": "bool"
        },
        {
          "internalType": "bool",
          "name": "refunded",
          "type": "bool"
        }
      ],
      "stateMutability": "view",
      "type": "function"
    }
  ],
  "bytecode": "0x608060405234801561001057600080fd5b50611ac8806100206000396000f3fe60806040526004361061004a5760003560e01c80637249fbb61461004f57806384cc9dfb14610078578063c814c90b146100a1578063cd61efed146100d1578063eb84e7f21461010e575b600080fd5b34801561005b57600080fd5b50610076600480360381019061007191906110bc565b610152565b005b34801561008457600080fd5b5061009f600480360381019061009a91906110e9565b61044c565b005b6100bb60048036038101906100b691906111bd565b610805565b6040516100c8919061121f565b60405180910390f35b3480156100dd57600080fd5b506100f860048036038101906100f3919061123a565b610ba2565b604051610105919061121f565b60405180910390f35b34801561011a57600080fd5b50610135600480360381019061013091906110bc565b610fbf565b6040516101499897969594939291906112ee565b60405180910390f35b600080600083815260200190815260200160002090508060000160009054906101000a900473ffffffffffffffffffffffffffffffffffffffff1673ffffffffffffffffffffffffffffffffffffffff163373ffffffffffffffffffffffffffffffffffffffff16146101fa576040517f08c379a00000000000000000000000000000000000000000000000000000000081526004016101f1906113c9565b60405180910390fd5b8060060160009054906101000a900460ff1615801561022857508060060160019054906101000a900460ff16155b610267576040517f08c379a000000000000000000000000000000000000000000000000000000000815260040161025e90611435565b60405180910390fd5b80600501544210156102ae576040517f08c379a00000000000000000000000000000000000000000000000000000000081526004016102a5906114a1565b60405180910390fd5b60018160060160016101000a81548160ff021916908315150217905550600073ffffffffffffffffffffffffffffffffffffffff168160020160009054906101000a900473ffffffffffffffffffffffffffffffffffffffff1673ffffffffffffffffffffffffffffffffffffffff1603610373573373ffffffffffffffffffffffffffffffffffffffff166108fc82600301549081150290604051600060405180830381858888f1935050505015801561036d573d6000803e3d6000fd5b5061041b565b8060020160009054906101000a900473ffffffffffffffffffffffffffffffffffffffff1673ffffffffffffffffffffffffffffffffffffffff1663a9059cbb3383600301546040518363ffffffff1660e01b81526004016103d69291906114c1565b6020604051808303816000875af11580156103f5573d6000803e3d6000fd5b505050506040513d601f19601f820116820180604052508101906104199190611516565b505b817ffe509803c09416b28ff3d8f690c8b0c61462a892c46d5430c8fb20abe472daf060405160405180910390a25050565b600080600084815260200190815260200160002090508060010160009054906101000a900473ffffffffffffffffffffffffffffffffffffffff1673ffffffffffffffffffffffffffffffffffffffff163373ffffffffffffffffffffffffffffffffffffffff16146104f4576040517f08c379a00000000000000000000000000000000000000000000000000000000081526004016104eb9061158f565b60405180910390fd5b8060060160009054906101000a900460ff1615801561052257508060060160019054906101000a900460ff16155b610561576040517f08c379a000000000000000000000000000000000000000000000000000000000815260040161055890611435565b60405180910390fd5b806004015460028360405160200161057991906115d0565b604051602081830303815290604052604051610595919061165c565b602060405180830381855afa1580156105b2573d6000803e3d6000fd5b5050506040513d601f19601f820116820180604052508101906105d59190611688565b14610615576040517f08c379a000000000000000000000000000000000000000000000000000000000815260040161060c90611701565b60405180910390fd5b8060050154421061065b576040517f08c379a00000000000000000000000000000000000000000000000000000000081526004016106529061176d565b60405180910390fd5b60018160060160006101000a81548160ff021916908315150217905550600073ffffffffffffffffffffffffffffffffffffffff168160020160009054906101000a900473ffffffffffffffffffffffffffffffffffffffff1673ffffffffffffffffffffffffffffffffffffffff1603610720573373ffffffffffffffffffffffffffffffffffffffff166108fc82600301549081150290604051600060405180830381858888f1935050505015801561071a573d6000803e3d6000fd5b506107c8565b8060020160009054906101000a900473ffffffffffffffffffffffffffffffffffffffff1673ffffffffffffffffffffffffffffffffffffffff1663a9059cbb3383600301546040518363ffffffff1660e01b81526004016107839291906114c1565b6020604051808303816000875af11580156107a2573d6000803e3d6000fd5b505050506040513d601f19601f820116820180604052508101906107c69190611516565b505b827f38d6042dbdae8e73a7f6afbabd3fbe0873f9f5ed3cd71294591c3908c2e65fee836040516107f8919061121f565b60405180910390a2505050565b6000803411610849576040517f08c379a0000000000000000000000000000000000000000000000000000000008152600401610840906117d9565b60405180910390fd5b42821161088b576040517f08c379a000000000000000000000000000000000000000000000000000000000815260040161088290611845565b60405180910390fd5b338460003486866040516020016108a7969594939291906118ce565b604051602081830303815290604052805190602001209050600073ffffffffffffffffffffffffffffffffffffffff1660008083815260200190815260200160002060000160009054906101000a900473ffffffffffffffffffffffffffffffffffffffff1673ffffffffffffffffffffffffffffffffffffffff1614610963576040517f08c379a000000000000000000000000000000000000000000000000000000000815260040161095a9061198a565b60405180910390fd5b6040518061010001604052803373ffffffffffffffffffffffffffffffffffffffff1681526020018573ffffffffffffffffffffffffffffffffffffffff168152602001600073ffffffffffffffffffffffffffffffffffffffff1681526020013481526020018481526020018381526020016000151581526020016000151581525060008083815260200190815260200160002060008201518160000160006101000a81548173ffffffffffffffffffffffffffffffffffffffff021916908373ffffffffffffffffffffffffffffffffffffffff16021790555060208201518160010160006101000a81548173ffffffffffffffffffffffffffffffffffffffff021916908373ffffffffffffffffffffffffffffffffffffffff16021790555060408201518160020160006101000a81548173ffffffffffffffffffffffffffffffffffffffff021916908373ffffffffffffffffffffffffffffffffffffffff160217905550606082015181600301556080820151816004015560a0820151816005015560c08201518160060160006101000a81548160ff02191690831515021790555060e08201518160060160016101000a81548160ff0219169083151502179055509050508373ffffffffffffffffffffffffffffffffffffffff163373ffffffffffffffffffffffffffffffffffffffff16827f14442dbf5e9aa943f3b7681bdf4e57c3256930c69ccc137263150f7e01bd51cf6000348888604051610b9394939291906119aa565b60405180910390a49392505050565b6000808411610be6576040517f08c379a0000000000000000000000000000000000000000000000000000000008152600401610bdd90611a3b565b60405180910390fd5b8473ffffffffffffffffffffffffffffffffffffffff166323b872dd3330876040518463ffffffff1660e01b8152600401610c2393929190611a5b565b6020604051808303816000875af1158015610c42573d6000803e3d6000fd5b505050506040513d601f19601f82011682018060405250810190610c669190611516565b50428211610ca9576040517f08c379a0000000000000000000000000000000000000000000000000000000008152600401610ca090611845565b60405180910390fd5b338686868686604051602001610cc4969594939291906118ce565b604051602081830303815290604052805190602001209050600073ffffffffffffffffffffffffffffffffffffffff1660008083815260200190815260200160002060000160009054906101000a900473ffffffffffffffffffffffffffffffffffffffff1673ffffffffffffffffffffffffffffffffffffffff1614610d80576040517f08c379a0000000000000000000000000000000000000000000000000000000008152600401610d779061198a565b60405180910390fd5b6040518061010001604052803373ffffffffffffffffffffffffffffffffffffffff1681526020018773ffffffffffffffffffffffffffffffffffffffff1681526020018673ffffffffffffffffffffffffffffffffffffffff1681526020018581526020018481526020018381526020016000151581526020016000151581525060008083815260200190815260200160002060008201518160000160006101000a81548173ffffffffffffffffffffffffffffffffffffffff021916908373ffffffffffffffffffffffffffffffffffffffff16021790555060208201518160010160006101000a81548173ffffffffffffffffffffffffffffffffffffffff021916908373ffffffffffffffffffffffffffffffffffffffff16021790555060408201518160020160006101000a81548173ffffffffffffffffffffffffffffffffffffffff021916908373ffffffffffffffffffffffffffffffffffffffff160217905550606082015181600301556080820151816004015560a0820151816005015560c08201518160060160006101000a81548160ff02191690831515021790555060e08201518160060160016101000a81548160ff0219169083151502179055509050508573ffffffffffffffffffffffffffffffffffffffff163373ffffffffffffffffffffffffffffffffffffffff16827f14442dbf5e9aa943f3b7681bdf4e57c3256930c69ccc137263150f7e01bd51cf88888888604051610fae94939291906119aa565b60405180910390a495945050505050565b60006020528060005260406000206000915090508060000160009054906101000a900473ffffffffffffffffffffffffffffffffffffffff16908060010160009054906101000a900473ffffffffffffffffffffffffffffffffffffffff16908060020160009054906101000a900473ffffffffffffffffffffffffffffffffffffffff16908060030154908060040154908060050154908060060160009054906101000a900460ff16908060060160019054906101000a900460ff16905088565b600080fd5b6000819050919050565b61109981611086565b81146110a457600080fd5b50565b6000813590506110b681611090565b92915050565b6000602082840312156110d2576110d1611081565b5b60006110e0848285016110a7565b91505092915050565b60008060408385031215611100576110ff611081565b5b600061110e858286016110a7565b925050602061111f858286016110a7565b9150509250929050565b600073ffffffffffffffffffffffffffffffffffffffff82169050919050565b600061115482611129565b9050919050565b61116481611149565b811461116f57600080fd5b50565b6000813590506111818161115b565b92915050565b6000819050919050565b61119a81611187565b81146111a557600080fd5b50565b6000813590506111b781611191565b92915050565b6000806000606084860312156111d6576111d5611081565b5b60006111e486828701611172565b93505060206111f5868287016110a7565b9250506040611206868287016111a8565b9150509250925092565b61121981611086565b82525050565b60006020820190506112346000830184611210565b92915050565b600080600080600060a0868803121561125657611255611081565b5b600061126488828901611172565b955050602061127588828901611172565b9450506040611286888289016111a8565b9350506060611297888289016110a7565b92505060806112a8888289016111a8565b9150509295509295909350565b6112be81611149565b82525050565b6112cd81611187565b82525050565b60008115159050919050565b6112e8816112d3565b82525050565b600061010082019050611304600083018b6112b5565b611311602083018a6112b5565b61131e60408301896112b5565b61132b60608301886112c4565b6113386080830187611210565b61134560a08301866112c4565b61135260c08301856112df565b61135f60e08301846112df565b9998505050505050505050565b600082825260208201905092915050565b7f4e6f742073656e64657200000000000000000000000000000000000000000000600082015250565b60006113b3600a8361136c565b91506113be8261137d565b602082019050919050565b600060208201905081810360008301526113e2816113a6565b9050919050565b7f646f6e6500000000000000000000000000000000000000000000000000000000600082015250565b600061141f60048361136c565b915061142a826113e9565b602082019050919050565b6000602082019050818103600083015261144e81611412565b9050919050565b7f6561726c79000000000000000000000000000000000000000000000000000000600082015250565b600061148b60058361136c565b915061149682611455565b602082019050919050565b600060208201905081810360008301526114ba8161147e565b9050919050565b60006040820190506114d660008301856112b5565b6114e360208301846112c4565b9392505050565b6114f3816112d3565b81146114fe57600080fd5b50565b600081519050611510816114ea565b92915050565b60006020828403121561152c5761152b611081565b5b600061153a84828501611501565b91505092915050565b7f4e6f7420726563697069656e7400000000000000000000000000000000000000600082015250565b6000611579600d8361136c565b915061158482611543565b602082019050919050565b600060208201905081810360008301526115a88161156c565b9050919050565b6000819050919050565b6115ca6115c582611086565b6115af565b82525050565b60006115dc82846115b9565b60208201915081905092915050565b600081519050919050565b600081905092915050565b60005b8381101561161f578082015181840152602081019050611604565b60008484015250505050565b6000611636826115eb565b61164081856115f6565b9350611650818560208601611601565b80840191505092915050565b6000611668828461162b565b915081905092915050565b60008151905061168281611090565b92915050565b60006020828403121561169e5761169d611081565b5b60006116ac84828501611673565b91505092915050565b7f62616420707265696d6167650000000000000000000000000000000000000000600082015250565b60006116eb600c8361136c565b91506116f6826116b5565b602082019050919050565b6000602082019050818103600083015261171a816116de565b9050919050565b7f6578706972656400000000000000000000000000000000000000000000000000600082015250565b600061175760078361136c565b915061176282611721565b602082019050919050565b600060208201905081810360008301526117868161174a565b9050919050565b7f6e6f2076616c7565000000000000000000000000000000000000000000000000600082015250565b60006117c360088361136c565b91506117ce8261178d565b602082019050919050565b600060208201905081810360008301526117f2816117b6565b9050919050565b7f6261642074696d65000000000000000000000000000000000000000000000000600082015250565b600061182f60088361136c565b915061183a826117f9565b602082019050919050565b6000602082019050818103600083015261185e81611822565b9050919050565b60008160601b9050919050565b600061187d82611865565b9050919050565b600061188f82611872565b9050919050565b6118a76118a282611149565b611884565b82525050565b6000819050919050565b6118c86118c382611187565b6118ad565b82525050565b60006118da8289611896565b6014820191506118ea8288611896565b6014820191506118fa8287611896565b60148201915061190a82866118b7565b60208201915061191a82856115b9565b60208201915061192a82846118b7565b602082019150819050979650505050505050565b7f6475700000000000000000000000000000000000000000000000000000000000600082015250565b600061197460038361136c565b915061197f8261193e565b602082019050919050565b600060208201905081810360008301526119a381611967565b9050919050565b60006080820190506119bf60008301876112b5565b6119cc60208301866112c4565b6119d96040830185611210565b6119e660608301846112c4565b95945050505050565b7f6e6f20616d6f756e740000000000000000000000000000000000000000000000600082015250565b6000611a2560098361136c565b9150611a30826119ef565b602082019050919050565b60006020820190508181036000830152611a5481611a18565b9050919050565b6000606082019050611a7060008301866112b5565b611a7d60208301856112b5565b611a8a60408301846112c4565b94935050505056fea2646970667358221220ab818cf5ee2738eb4122a1c2d125939fc6b5ac63d2d6c168e690636fdb96de4064736f6c63430008140033",
  "linkReferences": {},
  "deployedLinkReferences": {}
}